:0600000002008B021E8BC2
:01000B0032C2
:03001300021F5871
:03001B00022209B5
:0100230032AA
:01002B0032A2
:01003300329A
:03003B000221435C
:01004300328A
:03004B00021E1181
:01005300327A
:03005B0002222955
:01006300326A
:01006B003262
:0300730002221254
:01007B003252
:03008300021EB2A8
:0300E40002008691
:050086001200E780FEFE
:1000E700A2AFE433FAC2AF7B008B047D00C3EC946C
:1000F70010ED94005010EB2402F582E434E0F58310
:1001070074FFF00B80E390E00074FFF090E001745F
:10011700FFF090E6297405F0E4A3F0ABBE5303FCAF
:100127008BBEABBE5303FB7C008BBEABBE7C00EB30
:1001370030E6F875C608ABC67C00BB08F9BC00F60C
:10014700ABFD4303808BFDC287ABFE4303048BFEED
:10015700ABFE4303088BFEABFE7C004303108BFE14
:10016700D292D293D294C002120564E582D0027073
:10017700F590E63074FFF075CC0075CD0075CE00B4
:1001870075CF0075CA0075CB0075CBE0ABCB4303C9
:10019700108BCBABCB4303028BCBD2C3D2D9ABCC27
:1001A7004303448BCC7B177CDF90DF17E0FD74F7AC
:1001B7005DFE8B828C83F090DF1774084DFBF0ABEC
:1001C700E97C00EB20E7F8ABBE5303FB8BBEABC665
:1001D7005303FE7C008BC6ABBE7C00EB30E6F89089
:1001E700E629E0FBA3E0FC90DF4D8C078F06EEF0DD
:1001F70090DF4EEBF090DF4BE4F090DF4C7422F091
:100207007B027CDF90DF02E0FE74F75E8B828C83DB
:10021700F07B037CDF90DF03E0FF4307208B828CBA
:1002270083EFF090DF4F747FF090E381741AF090C2
:10023700DF107441F090DF1174B0F090E380745FC9
:10024700F090DF0B745FF090DF02430608EEF0904A
:10025700DF17430508EDF0AB914303408B91ABE902
:100267005303BF8BE9AB9A7C004303018B9AC28986
:10027700D2A87B00BB0400501CEB75F009A4247CBA
:10028700FCE434E0FD74082CF582E43DF583E0548A
:10029700FDF00B80DF90E07674FFF090E07574FF5F
:1002A700F090E077E4F090E07474E6F090E53B744A
:1002B7004EF0A37470F075E60075E70075E20075FF
:1002C700E30075E50075E40075E40CD2B9ABD843DB
:1002D70003408BD890E53BE0F5DA90E53C75F000FC
:1002E700122477F5DBABE44303208BE4ABE4430351
:1002F700028BE4ABE57C004303448BE5C0021205A7
:1003070064E582D00270F5EA24FF92AFD2AF90E0A5
:1003170072E4F0A3F090E629E0FAA3E0FB8A828B6F
:1003270083121DBE121CF4AA82AB83A2AFE433FC76
:10033700C2AF90E20874FFF0A3F090E20AE4F090F5
:10034700E20BF090E62474FFF0E4A3F08A828B833B
:10035700C0041223CAAA82AB83D00490E20CEAF04D
:100367007A00BA14005039EA75F005A4FB240DF59C
:1003770082E434E2F58374FEF0A374FFF0EB240DFE
:10038700FBE434E2FD8B828D83A3A374FEF0A37498
:10039700FFF08B828D83A3A3A3A374FFF00A80C20F
:1003A700EC24FF92AF90E2797401F090DF177404A8
:1003B700F090DF17E0FA20E4F875E1E675E1E6A2D0
:1003C700AFE433FAC2AFAB914303208B91ABE95350
:1003D70003DF8BE9AB9A4303018B9AEA24FF92AFC1
:1003E70075E1E290E383E4F090E384F07A027BDF47
:1003F70090DF02E0FC4304088A828B83ECF07A03E7
:100407007BDF90DF03E0FC4304108A828B83ECF0F0
:1004170090E2767401F090E278E4F090E629E0FA51
:10042700A3E0EA75F00DA4FA90E277F07B008A82E8
:100437008B83121DBE90E408E4F090E409F090E489
:100447000AF090E48AF090E50AE4F090E62BF09049
:10045700E62CF0A3F090E62EE4F0A3F0AAF18AF1DF
:10046700AAF343020C8AF375C2D875C50AAA864354
:1004770002C08A86AAC44302828AC4C2E9C28BD256
:10048700AAAA9A4302048A9AAAF14302028AF1AA03
:10049700F44302C08AF475FAD875FC0AAAF8430235
:1004A700C08AF8AAFB4302828AFBC2EAC28FD2AB98
:1004B700AA9A4302088A9A90E629E0FAA3E0FB4A3F
:1004C700601A90E5CC74B8F0A3740BF0A3E4F0A322
:1004D700F090E5D0E4F075820012184CA2AFE43337
:1004E700FAC2AF90E000E0FB7C00BBFF05BC000256
:1004F700803E90E000E0FB90E000E02402F582E41B
:1005070034E0F583E090E000F090E000E0FC7D004F
:10051700BCFF09BD000690E00174FFF0EB2402F573
:1005270082E434E0F58374FFF090E53DEBF080065C
:1005370090E53D74FFF090E53DE0FBBBFF12D2AFC5
:10054700ACBE5304FC7D004304018CBEC2AF809354
:10055700EA24FF92AF8B821205CD0204E390E000FC
:10056700E0FA7B00BAFF05BB0002803E90E000E0A6
:10057700FA90E000E02402F582E434E0F583E090AD
:10058700E000F090E000E0FB7C00BBFF09BC000648
:1005970090E00174FFF0EA2402F582E434E0F58389
:1005A70074FFF090E53EEAF0800690E53E74FFF0B8
:1005B70090E53EE0FABAFF04758200228A821205AE
:1005C700CD7582012222E58290E53FF090E53FE07C
:1005D700FA24F050030211B2EA2A2A9005E67302C0
:1005E70006160207C8020837020B7A020BC8020C6C
:1005F70015020C1B020C24020CC9020CD1020CEAD6
:10060700020FB90210BE0211580211720211787A54
:1006170000BA0400400302073EEA75F009A4247CEF
:10062700FBE434E0FC74082BFDE43CFE8D828E83F2
:10063700E020E10302073AC00274042BFDE43CFE0C
:100647008D828E83E0F508A3E0F509A3E0F50AA300
:10065700E0F50B90E074E0FAE4FFF8F9E508C39AD7
:10066700FAE5099FFFE50A98F8E50B99F98D828E5F
:1006770083EAF0A3EFF0A3E8F0A3E9F0C374029ACA
:10068700E49FE498748089F063F08095F0E433D0B8
:1006970002600302073A74082BF582E43CF583E015
:1006A7005401FFBF010F74082BF582E43CF583E08A
:1006B70054FDF08045C0028D828E83E0F508A3E0EB
:1006C700F509A3E0F50AA3E0F50B8B828C83E0FB29
:1006D700A3E0FCA3E0FAA3E0FFEB2508FBEC350958
:1006E700FCEA350AFAEF350BFF8D828E83EBF0A318
:1006F700ECF0A3EAF0A3EFF0D00290E076E0FBBBCA
:10070700030690E07674FFF090E076E090E07604E0
:10071700F090E077E090E07704F090E076E02478DE
:10072700F582E434E0F583EAF0758201C002121520
:100737002FD0020A02061890E54074E6F07A00BA54
:100747000400505EEA75F009A4247CFBE434E0FC65
:1007570074082BFDE43CFE8D828E83E030E140C0BF
:10076700028B828C83A3A3A3A3E0FBA3E0FCA3E0FB
:10077700FDA3E0FE8B088C098D0A8E0B90E540E007
:10078700FA7F0078007900C3E5089AE5099FE50A32
:1007970098E50B99E433D002600590E540EBF00A49
:1007A700809DA2AFE433FAC2AF90E540E0FB90E052
:1007B70074F08B82C002121C9FD002EA24FF92AF12
:1007C7002290E077E0FA700890E5417404F08031F8
:1007D70090E075E0FBBB030690E07574FFF090E0D6
:1007E70075E0FB90E07504F0EA1490E077F090E094
:1007F70075E02478F582E434E0F583E0FA90E5418A
:10080700F090E541E0FABA04004001227B00BA000B
:1008170005BB00028011BA0205BB0002800CBA03B7
:1008270005BB00028007220219D90219C50219ADBA
:1008370090E58FE4F0A3F0A3F090E0D075F00012FC
:100847001661AA82AB83ACF090E619EAF0A3EBF04D
:10085700A3ECF090E61C7418F0E4A3F090E1F075B7
:10086700F00012231B90E54274FCF0A374E1F0A39F
:10087700E4F090E629E0FAA3E0FB4A60012290E069
:100887004275F000121B79AA82AB83ACF090E54267
:10089700E0FDA3E0FEA3E0FF90E619EDF0A3EEF084
:1008A700A3EFF090E61C740CF0E4A3F08A828B832C
:1008B7008CF0C002C003C00412231BD004D003D0A5
:1008C7000274022AFAE43BFB8A828B838CF012249F
:1008D70077FAA3122477FB90E04875F000EA122319
:1008E70091A3EB12239190E50A7401F090E550E48F
:1008F700F0A3F090E550E0FB7A0090E55175F00029
:100907001224777D004202ED420390E04675F00025
:10091700EA122391A3EB12239190E04BE4F5F01236
:10092700239190E04C75F000740A12239190E04AED
:1009370075F000740C12239190E48B747EF090E4B0
:100947008C7445F090E6097445F0900000121D4B39
:10095700AA82AB8390E5457403F090E48DE4F090B0
:10096700E609F08A828B83121D4BE5828583F0901E
:10097700E546F0A3E5F0F07A00BA13004003020A57
:10098700F0EA2446FBE434E0FC7D008B828C838D07
:10099700F0122477FBBB7D6790E545E0FB90E548C7
:1009A700F090E545EB04F090E548E0248BF582E410
:1009B70034E4F583747DF090E545E0FB90E549F07C
:1009C70090E545EB04F090E549E0248BF582E434AB
:1009D700E4F583745DF090E546E0FBA3E0FC90E668
:1009E70009747DF08B828C83C002121D4BE58285D2
:1009F70083F0D00290E546F0A3E5F0F0020AECEAB6
:100A07002446FBE434E0FC7D008B828C838DF0125E
:100A17002477FBBB7E6690E545E0FB90E54AF090C6
:100A2700E545EB04F090E54AE0248BF582E434E4F5
:100A3700F583747DF090E545E0FB90E54BF090E59C
:100A470045EB04F090E54BE0248BF582E434E4F5C4
:100A570083745EF090E546E0FBA3E0FC90E6097442
:100A67007EF08B828C83C002121D4BE5828583F05A
:100A7700D00290E546F0A3E5F0F0806990E545E007
:100A8700FB90E54CF090E545EB04F090E54CE02455
:100A97008BFBE434E4FCEA2446FDE434E0FE7F000B
:100AA7008D828E838FF01224778B828C83F090E572
:100AB70046E0FBA3E0FCEA2446FDE434E0FE7F00C9
:100AC7008D828E838FF012247790E609F08B828CCB
:100AD70083C002121D4BE5828583F0D00290E54664
:100AE700F0A3E5F0F00A02098090E545E0FA90E509
:100AF7004DF090E545EA04F090E54DE0248BFAE4EB
:100B070034E4FB90E546E0FCA3E0FD8C068A828B8B
:100B170083EEF090E545E0FA90E54EF090E545EA82
:100B270004F090E54EE0248BF582E434E4F5838D00
:100B370004ECF090E545E0FA90E54FF090E545EAE2
:100B470004F090E54FE0248BF582E434E4F58374F8
:100B57007EF090E545E090E577F090E48B75F00046
:100B67001211B6A292E433FA7B004B7003D29222A1
:100B7700C2922290E208E0FAA3E0FB90E20AE07555
:100B8700F030A42400FCE434E1FD90E5FDECF0A393
:100B9700EDF0A3E4F090E6007418F08A828B8312DC
:100BA7001BA6E58260012290E20AE075F030A424DA
:100BB70000FAE434E1FB7C008A828B838CF0021715
:100BC70087121CF4AA82AB8390E624740CF0E4A38A
:100BD700F08A828B831223CAAA82AB83EA700675D6
:100BE700820C02152FBA0C00400890E55274FEF0F3
:100BF700800990E552EA75F014A4F075CA0090E5F3
:100C070052E0F5CDD2BBAACB4302108ACB22758224
:100C170000021CC790E382E0F582021CC775E1E77A
:100C270090DF62E0FA20E00C90E3827420F0758296
:100C37000602152FA2AFE433FAC2AF90E27DE0FBC4
:100C4700A3E0FCA3E0FD74012BFEE43CFF8D008EC6
:100C5700828F8388F0122477FE30E50890E384744E
:100C670001F0800590E384E4F08B828C838DF01291
:100C77002477FE8ED97F01C3EF9E501AC002EF2B57
:100C8700F8E43CF98D02888289838AF0122477F58B
:100C9700D90FD00280E190E3837401F075E1E3900E
:100CA700E5CC7428F0E4A3F0A3F0A3F090E5D074AA
:100CB70001F0758202C00212184CD002EA24FF929A
:100CC700AF2290E096E054FDF02290E5CC7410F04E
:100CD700E4A3F0A3F0A3F090E5D07401F0758203CC
:100CE70002184C90E5537400F0A374E3F0A3E4F00A
:100CF70090E300E024F4FA90E300F0EA240BFBE42D
:100D070034E3FC7D008B828C838DF0122477FB907B
:100D1700E32A75F000EB122391EA04240BFAE4347A
:100D2700E3FB7C008A828B838CF0122477FA747F32
:100D37005AFB90E32B75F000EB122391530280EAE4
:100D4700235401FA90E32C75F000EA12239190E303
:100D57000675F000122477FAA3122477FB90E62990
:100D6700E0FCA3E0FDEAB5040FEBB5050B90E556F3
:100D77007401F0E4A3F08018BAFF0EBBFF0B90E5F7
:100D8700567401F0E4A3F0800790E556E4F0A3F071
:100D970090E556E0FAA3E0FBEA70012290E30A75BA
:100DA700F000122477FABA0B0280012290E58FE453
:100DB700F0A3F0A3F090E30075F000121661AA8289
:100DC700AB83ACF074022AFDE43BFE8C078D828E68
:100DD700838FF0122477FDA3122477FE90E629E093
:100DE700FFA3E0F8EDB5075FEEB5005B90E553E0D4
:100DF700FDA3E0FEA3E0FF8D828E838FF01216BF66
:100E0700E58260012290E553E0FDA3E0FEA3E0FF49
:100E170090E619EDF0A3EEF0A3EFF090E61C743026
:100E2700F0E4A3F090E0D075F00012231B90E55397
:100E3700E0FDA3E0FEA3E0FF8D828E838FF0121703
:100E47008775820202152F90E553E0FDA3E0FEA30C
:100E5700E0FF8D828E838FF0C002C003C00412169C
:100E6700BFE582D004D003D00260012274072AFABA
:100E7700E43BFB8A828B838CF0122477FD7001227E
:100E87001D8A828B838CF0ED12239190E20AE09009
:100E9700E20A04F090E20AE0FA90E20A75F005EA45
:100EA70084E5F0F090E20AE075F030A42400FAE45B
:100EB70034E1FB7C0090E553E0FDA3E0FEA3E0FFF7
:100EC70090E619EDF0A3EEF0A3EFF090E61C743076
:100ED700F0E4A3F08A828B838CF012231B90E20A42
:100EE700E075F030A42400FAE434E1FB7C0090E5DF
:100EF7008FE4F0A3F0A3F08A828B838CF012166143
:100F0700AA82AB83ACF090E619EAF0A3EBF0A3EC6E
:100F1700F090E61C7418F0E4A3F090E55875F00023
:100F270012231B90E5587405F0A3E4F090E560E008
:100F3700FAA3E0FBBAFE15BBFF1290E629E0FCA37B
:100F4700E0FD90E560ECF0A3EDF0801890E562EA33
:100F5700F0A3EBF090E629E0FAA3E0FB90E560EA66
:100F6700F0A3EBF090E20AE075F030A42400FAE475
:100F770034E1FB7C0090E58FE4F0A3F0A3F08A82D4
:100F87008B838CF0121661AA82AB83ACF090E619C2
:100F97007458F0A374E5F0A3E4F090E61C7418F01D
:100FA700E4A3F08A828B838CF012231B75820302E1
:100FB700152F90E570E5D9F0E0FABA7F0050079059
:100FC700E300EAF0800E75E1E675E1E6ABE953036D
:100FD700DF8BE92290DF53E0FBC39AE433FA603DED
:100FE7007C00BC1400501E7D407E01ED4E601090C9
:100FF700E385E4F0E4F0E4F01DBDFFEF1E80ECEACA
:1010070060030C80DD90E570E0FAC3EB9A500E7533
:10101700E1E675E1E6AAE95302DF8AE922C3E49B28
:10102700E433FABB8100E433FB90E570E0FC7D001C
:10103700C3ED9C5035EA6021EB6010ED042400F508
:1010470082E434E3F583E5D9F0801C75E1E675E1C8
:10105700E6AEE95306DF8EE92275E1E675E1E6AE15
:10106700E95306DF8EE9220D80C6EC2400F582E401
:1010770034E3F583E0FA30E73090E301E0FA530216
:1010870003BA021F90E384E0FA601E90E09FE054E9
:10109700FDF090E384E4F090E383F0758205121588
:1010A7002F800675820A12152F75E1E675E1E6AA0B
:1010B700E95302DF8AE92290DF62E0FA530201BABC
:1010C700015490E27AE0FAA3E0FBA3E0FC8A828B6A
:1010D700838CF0122477FD248050012290E383E073
:1010E700FEBE0101227E0090E619EAF0A3EBF0A311
:1010F700ECF090E61CEDF0A3EEF090E28075F000C6
:1011070012231B90E27D7480F0A374E2F0A3E4F055
:1011170075820702152F90E278E0FABA0400500CA6
:1011270090E278EA04F075820402152F90E2767453
:1011370001F090E278E4F090E27AE0FAA3E0FBA312
:10114700E0FC90E58A7401F08A828B838CF00215AB
:10115700FA90E630E075F003A42405F582E434E460
:10116700F583E4F0A3F0A3F002126F90E50AE4F030
:101177002290E48AE0FABA443590E571747EF090E3
:10118700E5727443F090E573E4F090E574749FF0B2
:1011970090E5757458F090E576747EF090E5777475
:1011A70006F090E57175F0000211B60205CC22AA8F
:1011B700F0AB83E58290E578F0A3EBF0A3EAF0903B
:1011C700E62CE0FAA3E0FBC3747E9AE49B500790F9
:1011D700E62CE4F0A3F090E578E0F524A3E0F5250C
:1011E700A3E0F52690E577E0FD7E00C3EE9D505520
:1011F70090E62EE0FFA3E0F8C3747E9FE4985007C3
:1012070090E62EE4F0A3F0C00590E62EE0FFA3E001
:10121700F8EF2486F522E834E3F523EE2524FDE4F0
:101227003525F9AA268D8289838AF01224778522AB
:1012370082852383F090E62E74012FF0E438A3F023
:101247000ED00580A690E62BE0FA701B90E62B7473
:1012570001F090E62CE0FAA3E0FBEA2486F582EBA6
:1012670034E3F583E0F5C12290E630E0FA90E57BC0
:10127700F0BAFF0590E57BE4F090E57BE0FAFB7CB4
:10128700008A057E000DBD00010EC3EB9DEC9E504C
:101297002EEBE4FD75F003A42405F582E434E4F5B0
:1012A70083E0FEA3E0FFA3E0F8BE0005BF000280D5
:1012B7000790E630EDF0800D0BBB00C50C80C290A7
:1012C700E63074FFF090E630E0FABAFF0122EA75E3
:1012D700F003A42405F582E434E4F583E0FAA3E0FF
:1012E700FBA3E0FC740A2AFDE43BFE8C078D828E8B
:1012F700838FF0122477FD74062AFEE43BFF8C00EF
:101307008E828F8388F0122477FEA3122477FF8AB8
:10131700828B838CF0122477F890E57CEEF0A3EFB4
:10132700F090E57EEAF0A3EBF0A3ECF090E581E81E
:10133700F08D82121348E582600675820D02152F23
:1013470022E58290E582F090E57CE0FAA3E0FB904D
:10135700E629E0F50FA3E0F510EAB50F08EBB510A5
:10136700047582012290E581E0FE24E35004758232
:10137700022290E276E0FFBF010280047582052217
:1013870090E57EE0FFA3E0F8A3E0F9740C2E8F82CE
:10139700888389F012239174012FF50CE438F50D39
:1013A700890E850C82850D83850EF0122477FEA3A6
:1013B7001224775306207C00850C82850D83850EC9
:1013C700F0EE122391A3EC12239190E279E0FC60F6
:1013D7005BBAFF05BBFF02802A850C82850D8385DA
:1013E7000EF0122477FEA31224775306207C008583
:1013F7000C82850D83850EF0EE122391A3EC122348
:10140700918050850C82850D83850EF0122477FE1E
:10141700A3122477FC5306DF850C82850D83850E86
:10142700F0EE122391A3EC1223918027850C82857D
:101437000D83850EF0122477FEA3122477FC530642
:10144700DF850C82850D83850EF0EE122391A3ECC8
:10145700122391850C82850D83850EF0122477FE69
:10146700A3122477FC430641430488850C82850D2B
:1014770083850EF0EE122391A3EC12239190E2776D
:10148700E0FC90E583F090E277EC04F074032FF52D
:101497000CE438F50D890E90E583E0850C82850D07
:1014A70083850EF012239174042FFCE438FD89061E
:1014B7008C828D838EF07422122391A3E4122391E0
:1014C70074062FFCE438FD89068C828D838EF0EA42
:1014D700122391A3EB12239174082FFAE438FB89A6
:1014E700048A828B838CF0E50F122391A3E51012F7
:1014F7002391740A2FFAE438FB890490E582E08A85
:10150700828B838CF012239190E27AEFF0A3E8F0BC
:10151700A3E9F090E2767402F090E278E4F0758245
:101527000412152F75820022E58290E584F0A2AFA0
:10153700E433FAC2AF90E584E0FB2402F582E43499
:10154700E0F583E0FC7D00BCFF05BD0002800B9049
:10155700E5887401F0E4A3F0802290E001E0FCE468
:10156700FDFEECB5030FEDB5060B90E5887401F0B1
:10157700E4A3F0800790E588E4F0A3F090E588E025
:10158700FBA3E0FCEB600790E587E4F0803D90E08B
:1015970000E0FB7C00BBFF13BC001090E584E0FB80
:1015A70090E000F090E001EBF0801A90E001E02479
:1015B70002FBE434E0FC90E584E0FD8B828C83F051
:1015C70090E001EDF090E5877401F090E587E0FB8E
:1015D700600990E585E4F0A3F0800990E58574053E
:1015E700F0E4A3F0EA24FF92AF90E585E0FAA3E0E8
:1015F7008A8222AAF0AB83E58290E58BF0A3EBF019
:10160700A3EAF090E630E0FA75F003A42405FBE4C2
:1016170034E4FC8B828C83E0FDA3E0FEA3E090E53D
:101627008BE0FFA3E0F8A3E0F9EDB5072CEEB500DA
:101637002890E58EEAF08B828C83E4F0A3F0A3F088
:1016470012126F90E58EE0FA7B00BA000CBB00091E
:1016570090E58AE0FA7002D29422AAF0AB83E58281
:1016670090E592F0A3EBF0A3EAF090E58FE0FAA300
:10167700E0FBA3E0FC8A058B06BD0005BE000280E7
:101687001E90E592E0FDA3E0FEA3E0FF8D828E832E
:101697008FF0122477FD8A828B838CF0122391902E
:1016A700E592E0FAA3E0FBA3E0FC740B2AFAE43B23
:1016B700FB8A828B838CF022AAF0AB83E58290E5CC
:1016C70095F0A3EBF0A3EAF090E5B0E4F090E59590
:1016D700E0FAA3E0FBA3E0FC90E58FE4F0A3F0A31E
:1016E700F08A828B838CF0121661AA82AB83ACF0EE
:1016F70090E619EAF0A3EBF0A3ECF090E61C74185F
:10170700F0E4A3F090E59875F00012231B7A00BA75
:1017170014005065EA75F005A4FB240DF582E43446
:10172700E2F583E0FCA3E0FD90E59AE0FEA3E0FF8D
:10173700ECB50642EDB5073EEB240DFBE434E2FCC5
:101747008B828C83A3A3E0FDA3E0FE90E59CE0FFE2
:10175700A3E0F8EDB5071FEEB5001B8B828C83A3C2
:10176700A3A3A3E0FB90E59EE0FCEBB5040890E59E
:10177700B07401F080030A809690E5B0E0F582220C
:10178700AAF0AB83E58290E5B1F0A3EBF0A3EAF012
:1017970090E5B1E0FAA3E0FBA3E0FC90E58FE4F06D
:1017A700A3F0A3F08A828B838CF0121661AA82AB16
:1017B70083ACF090E619EAF0A3EBF0A3ECF090E627
:1017C7001C7418F0E4A3F090E5B475F00012231B25
:1017D700A2AFE433FAC2AF90E20BE0FB75F005A4C9
:1017E700FC240DFDE434E2FE90E5B6E0FFA3E0F84B
:1017F7008D828E83EFF0A3E8F0EC240DFCE434E255
:10180700FD74022CFEE43DFF90E5B8E0F8A3E0F993
:101817008E828F83E8F0A3E9F074042CFCE43DFD8D
:1018270090E5BAE08C828D83F090E20BEB04F090A8
:10183700E20BE0FB90E20B75F014EB84E5F0F0EAC5
:1018470024FF92AF22E58290E5D1F090E5D1E0FA4E
:10185700BA040040047582002290E5CCE0FBA3E0C7
:10186700FCA3E0FDA3E0FEEB4C4D4E702C8A07F87D
:10187700BF0005B800028010BF0205B80002800D46
:10188700BF0312B8000F800A1219D980081219C5B0
:1018970080031219AD75820022EA75F009A4FA24B3
:1018A7007CF582E434E0F583EBF0A3ECF0A3EDF0F4
:1018B700A3EEF0EA247CF513E434E0F5147408256C
:1018C70013F511E43514F51290E5D0E08511828502
:1018D700128313E092E0F0A2AFE433F511C2AF90A8
:1018E700E5D2E5E2F090E5D375F000E5E312239148
:1018F70090E5D2E0F9A3E0F890E613747DF0E4A355
:10190700F089828883C003C004C005C00612228103
:10191700E5828583F0D006D005D004D00390E5D2C8
:10192700F0A3E5F0F090E5D2E0F8A3E079007A00C3
:101937007F0090E5CCE82BF0E93CA3F0EA3DA3F06B
:10194700EF3EA3F074042513FAE43514FB90E5CCBD
:10195700E0FCA3E0FDA3E0FEA3E0FF8A828B83EC1B
:10196700F0A3EDF0A3EEF0A3EFF0851382851483C7
:10197700A3A3A3A3A3A3A3A3E04402F090E074E06E
:10198700FA7B0078007900C3EC9AED9BEE98EF990B
:10199700500A90E074ECF08C82121C9FE51124FF32
:1019A70092AF7582002290E383E4F090E384F075B0
:1019B700E1E790E3827422F075820602152F90E327
:1019C70083E4F075E1E790E3827421F07582060203
:1019D700152F90E072E0FAA3E0FB90E5E0EAF0A3B0
:1019E700EBF090E07274012AF0E43BA3F090E5E09D
:1019F700E0FAA3E0FB90E5D4EAF0A3EBF090E62948
:101A0700E0FAA3E0FB90E5D6EAF0A3EBF090E5D887
:101A170074BBF0A374AAF090E5DA74DDF0A374CC7C
:101A2700F090E5DC74FFF0A374EEF090E5DE74341B
:101A3700F0A37412F090E01275F000121B79AA82DD
:101A4700AB83ACF090E61974D4F0A374E5F0A3E48B
:101A5700F090E61C740CF0E4A3F08A828B838CF080
:101A670012231BA293E433FA7B004B7004D29380BA
:101A770002C29390E58FE4F0A3F0A3F090E0127513
:101A8700F000121661AA82AB83ACF090E5E2740411
:101A9700F0A3E4F090E5E4F0A3F090E629E0FDA3DD
:101AA700E0FE90E5E6EDF0A3EEF090E20CE090E5C5
:101AB700E8F090E5E97405F090E5EA74FEF0A374A8
:101AC700FFF090E5EC74FEF0A374FFF090E619EADE
:101AD700F0A3EBF0A3ECF090E61C740CF0E4A3F099
:101AE70090E5EE75F00012231B90E58FE4F0A3F06C
:101AF700A3F090E0A075F000121661AA82AB83AC48
:101B0700F090E61974E2F0A374E5F0A3E4F090E630
:101B17001C7418F0E4A3F08A828B838CF012231BC9
:101B270090E20CE090E20C04F090E20CE0FA90E214
:101B37000C75F0FFEA84E5F0F090E208E0FAA3E024
:101B4700FB90E5FD74A0F0A374E0F0A3E4F090E649
:101B5700007418F08A828B83121BA6E582FA700C38
:101B670090E0A0F5F0C002121787D002EA7002C217
:101B77009422AAF0AB83E58290E5FAF0A3EBF0A3F9
:101B8700EAF090E5FAE0FAA3E0FBA3E0FC90E58F2A
:101B9700E4F0A3F0A3F08A828B838CF0021661AA8B
:101BA70083E58290E601F0A3EAF090E5FDE0FAA371
:101BB700E0FBA3E0FC74062AF518E43BF5198C1A40
:101BC70090E601E0F8A3E0F9851882851983851A64
:101BD700F0E8122391A3E9122391740A2AF515E478
:101BE7003BF5168C178515828516838517F0740BC0
:101BF70012239190E405E0F8A3E0F9A3E0FDB80013
:101C070005B90002800990E6037405F0021C98905C
:101C1700E405EAF0A3EBF0A3ECF090E600E0FD8A20
:101C2700828B838CF012239190E630E0FEBEFF5C3E
:101C37008515828516838517F0122477FE8518820D
:101C4700851983851AF0122477FFA3122477F89059
:101C5700E630E4F090E57CEFF0A3E8F090E57EEA6B
:101C6700F0A3EBF0A3ECF090E581EDF08E82121378
:101C770048E582FA600F90E63074FFF090E405E4DF
:101C8700F0A3F0A3F090E603EAF0800590E603E402
:101C9700F090E603E0F58222E58290E604F090E614
:101CA70004E090E60575F07DA4F0A3E5F0F090E67A
:101CB70005E0F5DA90E60675F000122477F5DB22E9
:101CC700E58290E607F090E2767401F090E278E41E
:101CD700F090E27AE0FAA3E0FBA3E0FC90E607E0ED
:101CE70090E58AF08A828B838CF00215FA90E27471
:101CF700E0FAA3E0FB90E622EAF0A3EBF090008580
:101D07001223AAE5828583F090E274F0A3E5F0F050
:101D170090E271E0FA90E608F090E271EA04F09040
:101D2700E608E0FA7B0090E274E0FCA3E0FD90E2B5
:101D370074EA2CF0EB3DA3F090E274E0FAA3E08A9A
:101D470082F58322AA83E58290E60AF0A3EAF0905F
:101D5700E609E0FB7A0090E60AE0FCA3E0FD90E6E6
:101D67000AEA6CF0EB6DA3F07A0890E60AE0FBA3B1
:101D7700E0FC8B058C06E4FFF8EE20E706EF700326
:101D8700E860178B05ECCD25E0CD33FE90E60A74AD
:101D9700216DF074106EA3F0800FECCB25E0CB33F0
:101DA700FC90E60AEBF0A3ECF0DABF90E60AE0FA63
:101DB700A3E08A82F58322AA83E58290E60CF0A34A
:101DC700EAF0AAE28A037A00ACE37D00EC4202ED76
:101DD700420390E629E0FCA3E0FD90E60CE0FEA3B9
:101DE700E0FFEC2EFEED3FFFEA2EFAEB3FFB90E221
:101DF70072EAF0A3EBF090E274741F2AF0E43BA3BD
:101E0700F090E271ECF075820022C021C0E0C0F0D2
:101E1700C082C083C002C003C004C005C006C0079B
:101E2700C000C001C0D075D000A2AFE433FAC2AF82
:101E3700ABE47C00EB30E409ABE45303EF7C008BAD
:101E4700E4ABE57C00EB30E619ABE47C00EB30E576
:101E570011ABE45303DF8BE4758200C00212152F28
:101E6700D002EA24FF92AFD0D0D001D000D007D063
:101E770006D005D004D003D002D083D082D0F0D0D2
:101E8700E0D02132C0E0C002C0D075D000A2AFE4DC
:101E970033FAC2AFC28975E1E675E1E675E1E7EAB3
:101EA70024FF92AFD0D0D002D0E032C021C0E0C032
:101EB700F0C082C083C002C003C004C005C006C012
:101EC70007C000C001C0D075D000A2AFE433FAC28A
:101ED700AFABE97C00AD917E00ED5203EE52047585
:101EE700E900EB30E50E75820BC002C00312152F17
:101EF700D003D002EB30E634758208C00212152FEA
:101F0700D00290E384E0FBBB010C758209C002128A
:101F1700152FD002801690E383E0FB600F90E383D8
:101F2700E4F0758205C00212152FD002759B00EAF6
:101F370024FF92AFD0D0D001D000D007D006D00573
:101F4700D004D003D002D083D082D0F0D0E0D0210B
:101F570032C021C0E0C0F0C082C083C002C003C04D
:101F670004C005C006C007C000C001C0D075D000BE
:101F7700C28B90E60EE5C1F090E408E0FA701B9082
:101F8700E60EE0FABA7E02800302212690E4087486
:101F970001F090E409E4F002212690E60EE0FABA97
:101FA7007E02800302207190E408E4F090E409E0E7
:101FB700FB7C00C374079BE49C400302212690E44A
:101FC7000BE0FB90E48AF090E41275F0001224779E
:101FD700FB24E3500302212690E41275F00012243B
:101FE7007790E50BF090E50F75F0007422122391BE
:101FF700A3E412239190E40EE0FBA3E0FC90E5112B
:1020070075F000EB122391A3EC12239190E629E0DF
:10201700FBA3E0FC90E51375F000EB122391A3EC12
:1020270012239190E41475F000122477FB90E515C4
:1020370075F000EB12239190E41275F000122477EB
:10204700FB7C0090E6197415F0A374E4F0A3E4F0A8
:1020570090E61CEBF0A3ECF090E51675F000122368
:102067001B75820F12152F022126BA7D0990E40AEB
:102077007401F002212690E40AE0FBBB0102800311
:102087000220FC90E40AE4F0BA5D2390E409E0FB47
:1020970090E60FF090E409EB04F090E60FE0FB24E4
:1020A7000BF582E434E4F583747DF0022126BA5EF1
:1020B7002290E409E0FB90E610F090E409EB04F0CD
:1020C70090E610E0FB240BF582E434E4F583747E9C
:1020D700F0804C90E409E0FB90E611F090E409EB06
:1020E70004F090E611E0FB240BF582E434E4F58379
:1020F700747DF0802A90E409E0FBBB7F0790E40839
:10210700E4F0801B90E612EBF090E409EB04F0900A
:10211700E612E0FB240BF582E434E4F583EAF0D021
:10212700D0D001D000D007D006D005D004D003D03E
:1021370002D083D082D0F0D0E0D02132C021C0E0DD
:10214700C0F0C082C083C002C003C004C005C0067F
:10215700C007C000C001C0D075D000AA867B00EAC6
:1021670030E0030221ECC2E990E62CE0FAA3E0FBA1
:1021770090E62C74012AF0E43BA3F090E62CE0FAF9
:10218700A3E0FBC3747E9AE49B500790E62CE4F02F
:10219700A3F090E62EE0FAA3E0FBC3747E9AE49BDB
:1021A700500790E62EE4F0A3F090E62CE0FAA3E0C7
:1021B700FB90E62EE0FCA3E0FDEAB50406EBB505CF
:1021C70002800FEA2486F582EB34E3F583E0F5C15C
:1021D700801390E62BE4F090E50AE0FABA01067561
:1021E700820E12152FD0D0D001D000D007D006D044
:1021F70005D004D003D002D083D082D0F0D0E0D075
:102207002132C0E0C28FE5F9D0E032C0E0C002C0A1
:1022170003AAF87B00EA20E002C2EAD003D002D08A
:10222700E032C021C0E0C0F0C082C083C002C0035A
:10223700C004C005C006C007C000C001C0D075D02B
:1022470000AACC7B00EA30E21410D902800FC2BB8F
:10225700AACB5302EF8ACB75820C12152FD0D0D0A0
:1022670001D000D007D006D005D004D003D002D0CB
:0A22770083D082D0F0D0E0D02132F5
:0824970005000000000000FF39
:10228100AA83E58290E615F0A3EAF090E617E4F060
:10229100A3F090E613E0FAA3E0FB7C1090E615E0D2
:1022A100FDA3E0FE339200EECD25E0CD33FE90E6B6
:1022B10015EDF0A3EEF090E617E0FDA3E0CD25E0EB
:1022C100CD33FE90E617EDF0A3EEF030001290E66C
:1022D10017E0FDA3E0FE90E61774014DF0A3EEF0C8
:1022E10090E617E0FDA3E0FEC3ED9AEE9B401D9042
:1022F100E617EDC39AF0EE9BA3F090E615E0FDA37F
:10230100E0FE90E61574014DF0A3EEF0DC8E90E650
:0A23110015E0FAA3E08A82F58322AA
:0600BA00E478FFF6D8FD1A
:10231B00AAF0AB83E58290E61EF0A3EBF0A3EAF004
:10232B0090E61EE0F525A3E0F526A3E0F52790E661
:10233B0019E0FDA3E0FEA3E0FF852522852623857A
:10234B00272490E61CE0F8A3E0F98802890318B86B
:10235B00FF0119EA4B60258D828E838FF012247753
:10236B00FAA3AD82AE838522828523838524F0EA8E
:10237B00122391A385822285832380CE8525828596
:06238B0026838527F022E5
:100098007908E94400601B7A01902497782975A0B3
:1000A800E6E493F2A308B8000205A0D9F4DAF275E1
:0200B800A0FFA7
:1023910020F71030F6118883A88220F507F6A8836C
:1023A10075830022F280F7F022AA83AB828BF09032
:1023B100E622E0A4F8A9F08AF0E0A429F98BF0A3C1
:1023C100E0A429F58388822222AA83E58290E62669
:1023D100F0A3EAF090E628E4F090E626E0FAA3E024
:1023E100FB7C0090E624E0FDA3E0FE235401FF7096
:1023F10037EECD25E0CD33FE90E624EDF0A3EEF0EF
:1024010090E624E0FDA3E0FEC3EA9DEB9E5011EEB1
:10241100C313CD13CDFE90E624EDF0A3EEF08008BA
:102421000C90E628ECF080BB90E628E0FA90E626D6
:10243100E0FBA3E0FC90E624E0FDA3E0FEC3EB9DFE
:10244100EC9E400B90E626EBC39DF0EC9EA3F09032
:10245100E624E0FBA3E0C313CB13CBFC90E624EB13
:10246100F0A3ECF08A031AEB70C390E626E0FAA31E
:06247100E08A82F58322DF
:1000C0007800E84400600A790075A0E0E4F309D8FC
:1000D000FC7829E84406600C790790E000E4F0A37E
:0400E000D8FCD9FA75
:0D008B00758127122493E582600302008630
:1024770020F71430F6148883A88220F507E6A8838E
:1024870075830022E280F7E49322E022758200221E
:00000001FF
